:0400000002001132B7
:03000B0002011FD0
:05006A00E4F511F512A0
:0300790002000E74
:03000E0002007C71
:20007C0012008712018D1200A280F812010F12023612033375100A9001E01202FC9001E0CA
:20009C00120389D2A0227F01740FF590B59001227582E8C00712022DD007740FB590012279
:2000BC0075900FAE90BE0702800FBE0B02800EBE0D02800DBE0E10800C7F00800A7F018058
:2000DC00067F0280027F037590F0AE90BE7002801FBEB002800ABED002800BBEE012800C26
:2000FC00EF2404FF800A74082FFF8004740C2FFF8F1022758901D2AFD2A9758CFC758A1898
:20011C00D28C22C020C0E0C0F0C082C083C007C006C005C004C003C002C001C000C0D0756D
:20013C00D000758CFC758A18AE11AF120511E4B511020512BE581DBF021AE4F511F51285E2
:20015C0010821202531201D19001E01202FC9001E0120389D0D0D000D001D002D003D0045C
:20017C00D005D006D007D083D082D0F0D0E0D020327F008FF005F0747F8002C313D5F0FBAC
:20019C00FE7408C39FF5F005F0747F800225E0D5F0FB4EF580EF2408F98782C00712020692
:2001BC0075826412022D758200120206D0070FBF080040BF227F00EF2408F876000FBF08CA
:2001DC000040F422C017858117AF82E51724FDF886F005F07401800225E0D5F0FBFEEF243B
:2001FC0008F98707EE4FF7D01722AF82C2B6C2B57E00EF235401FD24FF92B4EF2FFFD2B607
:1A021C000000C2B60EBE080040E8D2B50000C2B522AF828F061FEE70FA22D5
:200236007F00EF2FFE2421F97402C39FF7EE242104F87600055D0FBF030040E622AF82BFF0
:200256000A028029BF0D02800ABF0E02802EBF0F38800BE521FF60051FAE22802D22AD2177
:20027600BD07005007ED04FFAE22801E22AD22BD07005007AF21ED04FE800F22E522FD600F
:2002960007AF21ED14FE80022222EFB55E11EEB55F0D055DC007C006120333D006D0077D29
:2002B60000C3ED955D501BED2DFC2421F98703EFB5030CEC242104F98704EEB50401220DFA
:2002D60080DF7D00C3ED955D501B8F048E03ED2DFA2421F98707EA2421F904F88606A704C0
:2002F600A6030D80DF22AE82AF837D00C3ED955D502AED2D2421F904F886048703C007C0C7
:2003160006C005C0041203208007C006C0078B82221581D005D006D0070D80D0227F01EFBA
:20033600604A7F00C0071203A77518087519001204ADAD828D601203A77518087519001208
:2003560004ADAD82D0078D617E00C3EE955D50CFEE2EFD2421F9E7FCB5600EED242104F916
:20037600E7FDB561047F0180B60E80DE85605E85615F22AE82AF83C007C006C05F120398E2
:110396008008C006C007855E82221581D006D0072255
:0A006F00751301E4F514F515F516FC
:2003A70085131885141985151A85161B904E6D75F0C674411203F2AC82AD83AEF0FF743990
:2003C7002CF51374303DF514E43EF515E43FF516AC15AD168C82747F5DF58322AE82AF83C0
:0B03E7008E138F147515007516002290
:06004000E478FFF6D8FD94
:20001E007900E94400601B7A009004E7780175A000E493F2A308B8000205A0D9F4DAF2759D
:02003E00A0FF21
:2003F200AAF0FBE5828518F0A4FCADF0E5838518F0A42DFDE435F0FEE5828519F0A42DFD98
:20041200E5F03EFEE433FFEA8518F0A42EFEE5F03FFFE5838519F0A42EFEE5F03FFFE58209
:20043200851AF0A42EFEE5F03FFFEB8518F0A42FFFEA8519F0A42FFFE583851AF0A42FFFDB
:0E045200E582851BF0A42F8EF08D838C822214
:20046000E518451960467A01E51825E0F518E519334012F519E5829518E583951940030AE9
:2004800080E6C3E51913F519E51813F518C3E5829518F5F0E58395194005F58385F082C3AE
:0D04A000E51913F519E51813F518DAE12236
:200046007800E84400600A790175A000E4F309D8FC7800E84400600C7900900001E4F0A3B8
:04006600D8FCD9FAEF
:0D0011007581611204E3E582600302000EB8
:2004AD00C2D5E58330E70DD2D5E4C39582F582E49583F583E51930E70BE4C39518F518E457
:1604CD009519F51912046030D50BE4C39582F582E49583F583220C
:0404E30075820022FC
:00000001FF
